:10000000CFE5D4E0DEBFCDBF0E943D000C940000E0
:10001000CF93DF93CDB7DEB70F931F932F933F930B
:100020000D8111E0023008F010E0812F882311F4D7
:100030000C94220081E03F912F911F910F91DF914D
:10004000CF910895802F8150182F1F930E94080090
:100050000F90182F802F8250082F0F930E940800B6
:100060000F90082F812F800F082F802F3F912F9105
:100070001F910F91DF91CF910895CF93DF93CDB76B
:10008000DEB70F931F932F933F930AE31BE3E02FF9
:10009000F0E08FEF80838BE08F93000000000F90E3
:1000A000082F0095E12FF0E0008380E03F912F9131
:0A00B0001F910F91DF91CF91089589
:00000001FF
