:10000000CFE5D4E0DEBFCDBF0E9432000C940000EB
:10001000CF93DF93CDB7DEB70F931F932F9300E0FD
:1000200011E00A3F08F010E0412F442311F40C9432
:100030002B0010E021E01A3F08F020E0422F44237B
:1000400011F40C942700112F1F5F0C941A00002F3D
:100050000F5F0C94100040E02F911F910F91DF91E2
:10006000CF910895CF93DF93CDB7DEB70F931F9352
:100070002F931AE30BE3E12FF0E04FEF4083E02FE3
:10008000F0E04FEF408310E041E0442311F40C9482
:100090006300212F277061E0422F542F552339F040
:1000A000660F4A95542F552311F00C945000262FBB
:1000B0002095E02FF0E02083112F1F5F000000004B
:1000C000542F0C94440040E02F911F910F91DF9129
:0400D000CF9108952F
:00000001FF
