:100000000C942A000C9434000C9434000C943400AA
:100010000C9434000C9434000C9434000C94340090
:100020000C9434000C9434000C9434000C94340080
:100030000C9434000C9434000C9434000C94340070
:100040000C9434000C9434000C9434000C94340060
:100050000C94340011241FBECFE5D4E0DEBFCDBF29
:100060000E9436000C9457000C940000CF93DF934D
:100070001F92CDB7DEB78AE390E02FEFFC0120831B
:100080008BE390E02FEFFC01208381E089838BE3F9
:1000900090E029812095FC0120838981803821F01E
:1000A0008981880F8983F3CF81E08983F0CFF89429
:0200B000FFCF80
:00000001FF
