:100000000C942A000C9434000C9434000C943400AA
:100010000C9434000C9434000C9434000C94340090
:100020000C9434000C9434000C9434000C94340080
:100030000C9434000C9434000C9434000C94340070
:100040000C9434000C9434000C9434000C94340060
:100050000C94340011241FBECFE5D4E0DEBFCDBF29
:100060000E9436000C9468000C940000CF93DF933C
:100070001F92CDB7DEB78AE390E02FEFFC0120831B
:100080008BE390E02FEFFC01208382E0898389815C
:10009000823028F48BE390E021E0FC01208381E0B2
:1000A00089838981823028F48BE390E022E0FC018F
:1000B000208319828981823028F48BE390E023E049
:1000C000FC01208380E090E00F90DF91CF910895B4
:0400D000F894FFCFD2
:00000001FF
