:100000000C942A000C9434000C9434000C943400AA
:100010000C9434000C9434000C9434000C94340090
:100020000C9434000C9434000C9434000C94340080
:100030000C9434000C9434000C9434000C94340070
:100040000C9434000C9434000C9434000C94340060
:100050000C94340011241FBECFE5D4E0DEBFCDBF29
:100060000E946B000C947C000C940000CF93DF93F3
:1000700000D01F92CDB7DEB71B821B828B818A3FD7
:1000800090F48B818F5F8B831A828A818A3FB0F7CD
:100090008A818F5F8A83198289818230B0F7898152
:1000A0008F5F8983F9CF0F900F900F90DF91CF91E1
:1000B0000895CF93DF93C82FD0E0C23038F08FEF90
:1000C0008C0F0E945900C250D80FF7CF81E08D0FDE
:1000D000DF91CF9108958FEF8ABB8BBBC0E08C2F4F
:1000E0000E94590080958BBBCC3011F0CF5F01C0CE
:0C00F000C0E00E943600F3CFF894FFCF70
:00000001FF
