:100000000C942A000C9434000C9434000C943400AA
:100010000C9434000C9434000C9434000C94340090
:100020000C9434000C9434000C9434000C94340080
:100030000C9434000C9434000C9434000C94340070
:100040000C9434000C9434000C9434000C94340060
:100050000C94340011241FBECFE5D4E0DEBFCDBF29
:100060000E945C000C947F000C940000CF93DF93FF
:1000700000D01F92CDB7DEB71982198213C08981D3
:100080008F5F89831A820BC08A818F5F8A831B826C
:1000900003C08B818F5F8B838B818230D0F38A8109
:1000A0008A3F90F389818A3F50F300000F900F90B0
:1000B0000F90DF91CF910895CF93DF931F92CDB72B
:1000C000DEB78AE390E02FEFFC0120838BE390E022
:1000D0002FEFFC01208381E089838BE390E029816D
:1000E0002095FC0120838981803821F08981880F47
:1000F000898302C081E089830E943600EECFF894A4
:02010000FFCF2F
:00000001FF
